:020000040800F2
:100000005004002045010008630C00085507000853
:10001000610C0008D90100084B1400080000000022
:10002000000000000000000000000000810F000838
:10003000DB01000800000000250D00081910000871
:100040005F0100085F0100085F0100085F01000810
:100050005F0100085F0100085F0100085F01000800
:100060005F010008D90200085F0100085F01000875
:100070005F0100085F0100085F0100085F010008E0
:100080005F0100085F0100085F0100085F010008D0
:100090005F0100085F0100085F0100080D03000810
:1000A0005F0100085F0100085F0100085F010008B0
:1000B0005F0100085F0100085F0100085F010008A0
:1000C0005F0100085F0100085F0100085F01000890
:1000D0005F0100085F0100085F0100085F01000880
:1000E0005F0100085F0100085F0100085F01000870
:1000F0005F0100085F0100085F0100085F01000860
:100100005F0100085F0100085F0100085F0100084F
:100110005F0100085F0100085F0100085F0100083F
:100120005F0100085F0100085F0100085F0100082F
:10013000DFF80CD000F018F8004800476D140008F4
:10014000500400200648804706480047FEE7FEE7C7
:10015000FEE7FEE7FEE7FEE7FEE7FEE7FEE7FEE777
:100160001D10000831010008064C074D06E0E0684C
:1001700040F0010394E8070098471034AC42F6D3EE
:10018000FFF7DAFF9C250008BC25000838B50121DF
:10019000080200F0D5FD48248DF8034003258DF8B2
:1001A00002508020ADF800006946094800F0CCF903
:1001B0000121212000F0C4FD8DF803408DF802508C
:1001C0000820ADF800006946024800F0BDF938BDCE
:1001D0000020014000140140FEE7704700B50246D0
:1001E0004FF47A7303E0184600F004F8521E002A18
:1001F000F9DC00BD42F2107103E0491E0029FCDC6D
:10020000401E0028FADC70472DE9FC4F0646002509
:10021000144603200F46A0EB440858E0A7EB05095D
:10022000A6EB040A1FFA89F11FFA8AF000F036FBE8
:10023000301900901FFA89F180B200F02FFB3819B5
:1002400081B2A6EB050B01901FFA8BF000F026FBA4
:100250001FFA89F11FFA8AF000F020FBA7EB0409CE
:100260001FFA89F11FFA8BF000F018FB009807EBDA
:10027000050B1FFA8BF180B200F010FB1FFA89F119
:1002800006EB05091FFA89F000F008FB019881B21E
:100290001FFA89F000F002FB1FFA8BF11FFA8AF0B7
:1002A00000F0FCFA6D1CB8F1000F04DA08EB8500D1
:1002B00000F1060805E0291B08EB810000F10A089F
:1002C000641E381981B2701980B200F0E7FAA542B5
:1002D000A4DDBDE8FC8F000010B5082000F052F846
:1002E00000280FD0082000F023F8074C01224021FD
:1002F000204600F086F920460122BDE8104080210A
:1003000000F07FB910BD0000001C014010B5802036
:1003100000F038F800280AD0802000F009F800F03A
:10032000F1FC00F0FFFEBDE8104000F0F3BC10BD92
:100330000149086070470000140401407CB50321A6
:10034000084600F0EDF8002408208DF804400C2544
:1003500000908DF8055001268DF80660684600F083
:1003600021F80721062000F0DBF880208DF80440FA
:1003700000908DF805508DF80660684600F012F880
:100380007CBD0000064A014600201268044B0A406A
:1003900014331B680B4202D0002A00D001207047A2
:1003A0000004014030B51A498379026853B30B68E1
:1003B00093430B600A1D13680468A343136002791A
:1003C0000A441368046823431360114A083213680F
:1003D0000468A3431360131D1C680568AC431C60CC
:1003E0004479102C05D021440A68006802430A6051
:1003F00030BD116804682143116019680068014329
:10040000196030BD0079084401689143016030BD36
:100410000004014004490A6822F010020A600A68D8
:1004200002430A607047000000200240034A11683E
:1004300001F03801014311607047000000200240C4
:100440004FF0204202EB80000029016802D041F009
:10045000010101E0014A114001607047FEFF0F00F9
:1004600030B5D0E901121143D0E903231A431143F7
:1004700042690368114382691143C2691143026AE8
:100480001143426A1143826A1143C26A1143026BEB
:1004900011434FF0204242F823108168082906D109
:1004A000016802EB81010B6843F040030B60416B74
:1004B000D1E9003443EA04138C68CD68240244EA8D
:1004C000054423430C6943EA04534C69896943EAB0
:1004D00004630B43016802EB81014B60C16AB1F513
:1004E000804F07D000686FF0704102EB8000C0F8C9
:1004F000041130BD816B0068D1E9003443EA041374
:100500008C680D69240244EA055423434C698969C7
:1005100043EA046302EB80000B43C0F8043130BDB2
:1005200010B58A0721F003040649130F21440F2256
:100530008C689A4094438C608A68984002438A6031
:1005400010BD0000000001402DE9F041CB780025EE
:1005500003F00F02DB0601D58B781A430B884FF0AE
:100560000F0813F0FF0F4FF0010C1CD0D0F8004023
:100570000E880CFA05F31E409E4210D1AF0008FA17
:1005800007F624EA060602FA07F43443CE78282E4A
:1005900002D0482E02D002E0436100E003616D1CEE
:1005A000082DE5D304600B88FF2B1DD94468002576
:1005B00005F108060CFA06F30E881E409E420FD184
:1005C000AF0008FA07F624EA060602FA07F43443F5
:1005D000CE78282E00D14361CE78482E00D1036119
:1005E0006D1C082DE4D34460BDE8F0810246002074
:1005F00092680A4200D00120704741617047016152
:1006000070470AB101617047416170472DE9FC5F95
:100610008046902000F03AFE00F0EAFD444D6880EC
:10062000D02000F033FE00F0E3FD6988C0F30B003A
:10063000C1F30B042880F03840F64D61884274D233
:10064000F02C72D340F63C718C426ED8C0EB001097
:10065000010140F64C6991FBF9F081B24FF47A75D3
:10066000B1FBF5F0A8F8001000F1300205FB101105
:100670006426B1FBF6F08DF8002000F1300206FB95
:1006800010110A27B1FBF7F08DF8012000F13002BC
:1006900007FB10108DF802203030DFF8A4B08DF881
:1006A00003004FF0000A8DF804A022A1584600F084
:1006B000C0FE6946584600F0BCFE22A1584600F034
:1006C000B8FEF03C04EB8400810191FBF9F0C0F529
:1006D000A07080B2B0FBF5F101F13002A8F8020081
:1006E00005FB1101B1FBF6F08DF8002000F130029E
:1006F00006FB1011B1FBF7F08DF8012000F130027C
:1007000007FB10108DF8022030308DF803008DF8B3
:1007100004A00DA1584600F08CFE6946584600F032
:1007200088FE08A1584600F084FEBDE8FC9F00004A
:1007300030000020785F76616C2069732020000013
:10074000003801400D0A0000795F76616C20697302
:1007500020200000FEE7000010B586B0012144F221
:10076000350000F0EDFA4FF40070ADF810000320F2
:100770008DF8120018201B4C8DF8130004A9204698
:10078000FFF7E2FE2015ADF8100004208DF81300ED
:1007900004A92046FFF7D8FE4FF4E1300090002076
:1007A000ADF80800ADF804000C210F4CADF80600C0
:1007B000ADF80A10ADF80C006946204600F0CCFDFB
:1007C0000121204600F09EFD012240F225512046E5
:1007D00000F0A9FD002240F22771204600F0A3FDA1
:1007E00006B010BD000801400038014030B50024BB
:1007F00005462146204600F05BF94FF0D841222003
:1008000008804FF496304D80641C8442FBD330BD89
:1008100038B50121080200F087FA012140F2E11009
:1008200000F08EFA4CF23370ADF8000003208DF822
:10083000020018208DF8030069461448FFF784FE73
:100840004FF6C070124CADF8000069462046FFF725
:100850007BFE0120ADF8000069460E48FFF774FEEC
:10086000A014ADF8000069460B48FFF76DFE0420A8
:10087000ADF8000010208DF8030069462046FFF710
:1008800063FE04212046FFF7B8FE38BD0014014086
:1008900000180140001C01400020014000B500F09C
:1008A00007F94FF0D841222008804FF47840488063
:1008B00000BD00B597B006210820CDE90F10032038
:1008C0001190002014901590CDE900101290102185
:1008D000CDE9020113900490069009020790CDE93A
:1008E00008010A900B900C900FA80D900E9068468E
:1008F000FFF7B6FD01210620FFF7A2FD17B000BDEE
:100900002DE9F04180460E4615461F46069C00F034
:1009100060F93146404600F0CBF84FF0D841222034
:100920000880B81B401CA5EB0802521C504300E095
:100930004C80401EFCD2BDE8F041F02200214FF473
:10094000A073084600F045B910B5FFF761FFFFF747
:10095000B0FF3220FFF742FC3220FFF73FFC0020BF
:1009600000F0A0F84E4988803220FFF737FC0121C3
:10097000002000F044F943F63F31012000F03FF938
:100980004FF4C061022000F03AF907210C2000F07A
:1009900036F906210D2000F032F94FF448510E20AF
:1009A00000F02DF9BB211E2000F029F946F6642144
:1009B000032000F024F900210F2000F020F94FF46B
:1009C0006F41442000F01BF90021452000F017F989
:1009D00040F23F11462000F012F90021302000F0D3
:1009E0000EF940F20671312000F009F940F20621BB
:1009F000322000F004F94FF44071332000F0FFF88A
:100A00000221342000F0FBF80021352000F0F7F837
:100A100040F20771362000F0F2F84FF400713720F1
:100A200000F0EDF840F608113A2000F0E8F840F642
:100A30000D713B2000F0E3F80621282000F0DFF8DC
:100A400041F2EB212F2000F0DAF84FF4E0412620AC
:100A500000F0D5F84BF2E301202000F0D0F844215B
:100A6000272000F0CCF847F645612E2000F0C7F8AB
:100A70000021102000F0C3F81E20FFF7AFFB46F660
:100A80007001112000F0BBF83321072000F0B7F807
:100A90003220FFF7A3FBBDE810400020FFF7A6BE01
:100AA000340000204FF0D8410880488848887047BB
:100AB0000B4600B501464E2000F0A1F819464F2024
:100AC0005DF804EB00F09BB82DE9F0430646DDE944
:100AD00007890F4615461C46E8283AD8B7F5987F8F
:100AE00037D83B1906EB540200F073F8394630460C
:100AF000FFF7DEFF4FF0D84322201880203DEDB2F3
:100B000000201BE00C2C05D0134901EB05110A5CF9
:100B100000210EE0114A05EB450102EB8101F6E7E9
:100B2000D60701D0464600E04E465E805208491C7A
:100B3000C9B2B1EB540FF3D3401CC0B2A042E1D311
:100B4000BDE8F043F02200214FF4A073084600F006
:100B500040B8BDE8F0830000181A0008A41500088A
:100B60002DE9FF4F82B01026DDE90F9A002780465D
:100B700093461D463C4627E0281B401EC1B20A2072
:100B800000F006FDBBFBF0F00A21B0FBF1F201FB27
:100B9000120127B9681E844201DA41B101277208A7
:100BA00002FB04803031C0B23346CAB205E071089E
:100BB00001FB0480C0B233462022CDE9009A03999C
:100BC000FFF782FF641CE4B2AC42D5D306B0BDE8A7
:100BD000F08F10B50C466FF0FF0101EB02210143CD
:100BE00089B2442000F00BF8A1B2452000F007F8CC
:100BF0005B1EBDE8104099B24620AFF300804FF075
:100C0000D84210805180704738B50121802000F013
:100C100097F84FF47070ADF8000003208DF80200D3
:100C200010200E4C8DF8030069462046FFF78CFC1F
:100C3000012240212046FFF7E4FC012280212046CA
:100C4000FFF7DFFC012211022046FFF7DAFC012248
:100C500051022046FFF7D5FC38BD0000001C0140C2
:100C6000FEE7704708B54FF4A06000F041F8172088
:100C70008DF8000000208DF801008DF802000120A1
:100C80008DF80300684600F001F808BD70B50F212B
:100C9000C478027801234FF0E026DCB1124C2468BE
:100CA00004F4E064C4F5E064250AC5F10404E940F5
:100CB0004578A54084780C402C4321010B4C1155FC
:100CC000007800F01F018B40400906EB8000C0F85F
:100CD000003170BD02F01F008340500906EB800018
:100CE000C0F8803170BD00000CED00E000E400E0D1
:100CF0000249084302490860704700000000FA05F5
:100D00000CED00E00248016821F0800101607047AD
:100D1000000401400248016841F080010160704711
:100D20000004014070470000044A0029516901D0C5
:100D3000014300E081435161704700000010024010
:100D4000044A0029916901D0014300E08143916187
:100D5000704700000010024010B500F031F84FF469
:100D60008034204600F0C4F8312000F097F80028C5
:100D7000FAD01020FFF74EFB0220FFF757FB0020B0
:100D800000F0ACF8002000F0D7F84FF4806000F0DD
:100D9000C9F84FF4E011204600F0DEF8012000F021
:100DA000D5F8392000F07AF80028FAD0022000F0B7
:100DB000DDF800BF00F08AF80828FBD110BD000064
:100DC0000C48016841F00101016041680A4A114084
:100DD00041600168094A11400160016821F48021E5
:100DE0000160416821F4FE0141604FF41F01816000
:100DF00070470000001002400000FFF8FFFFF6FE01
:100E0000224910B54A6812F00C03214A03D0042B82
:100E100001D0082B26D002604A681E4B02F0F00277
:100E200012099C5C0268E24042604C6804F4E06491
:100E3000240A1C5D22FA04F484604C6804F46054B3
:100E40004FEAD4241B5D22FA03F2C2604968114BB9
:100E500001F440414FEA91311B1F595CB2FBF1F1A3
:100E6000016110BD4A684B6802F470124FF0020431
:100E700013F4803F04EB924202D04B689B0301D5F0
:100E8000054B00E0024B5A43C5E70000001002404A
:100E900000127A003E00002000093D0002460020BA
:100EA00053090949012B0BD0022B0BD0D1F8241088
:100EB00002F01F02012393400B4200D00120704733
:100EC0000968F5E7096AF3E7001002400248406844
:100ED00000F00C007047000000100240034A516807
:100EE00021F0F00101435160704700000010024002
:100EF0000B490A6822F480320A600A6822F48022D0
:100F00000A60B0F5803F07D0B0F5802F03D10868A4
:100F100040F4A02008607047086840F48030F9E78A
:100F200000100240034A516821F4E061014351601E
:100F3000704700000010024003494A6822F46052E2
:100F400042EAC0004860704700100240014908664C
:100F50007047000000004242034A5368084323F4EC
:100F60007C1318435060704700100240034A5168D8
:100F700021F003010143516070470000001002405E
:100F80007047000022480021026842F4803202606B
:100F90004FF4A063026801F1010112F4003F01D196
:100FA0009942F7D10168890330D51A490A6842F09D
:100FB00010020A600A6822F003020A600A6842F01E
:100FC00002020A604168416041684160416841F441
:100FD00080614160416821F47C114160416841F4C5
:100FE000E8114160016841F0807101600168890188
:100FF000FCD5416821F003014160416841F00201E4
:1010000041604168C1F381010229FAD170470000B3
:101010000010024000200240704700000F4810B549
:10102000016841F00101016041680D4A11404160D1
:1010300001680C4A11400160016821F480210160BF
:10104000416821F4FE0141604FF41F018160FFF708
:1010500099FF05494FF00060086010BD0010024084
:101060000000FFF8FFFFF6FE08ED00E02DE9F84371
:1010700001210820FFF764FE10258DF8035003249A
:101080008DF80240E802DFF89490ADF80000694660
:101090004846FFF759FA01210820FFF751FE48267C
:1010A0008DF803608DF80240A802ADF80000694693
:1010B0004846FFF749FA01210F023846FFF740FE84
:1010C0008DF803508DF80240E801DFF85480ADF848
:1010D000000069464046FFF737FA01210820FFF774
:1010E0002FFE8DF803508DF802406802ADF8000025
:1010F00069464846FFF728FA01213846FFF720FEE7
:101100008DF803608DF802408020ADF8000069463C
:101110004046FFF719FABDE8F8830000000C0140D3
:101120000020014008B500204FF4FA72530000215E
:10113000491C9142FCDB401C9842F8DB80212B4883
:10114000FFF754FA002850D16846FFF75FFABDF860
:101150000200401C81B2BDF80000401C80B2FFF7C5
:101160009DFBBDF80200401E81B2BDF80000401C8E
:1011700080B2FFF793FBBDF80210BDF80000FFF747
:101180008DFBBDF80200401C81B2BDF80000FFF7E6
:1011900085FBBDF80200401E81B2BDF80000FFF7DC
:1011A0007DFBBDF80000BDF80210401C80B2FFF7C7
:1011B00075FBBDF80000BDF80210401E80B2FFF7BD
:1011C0006DFBBDF80200401E81B2BDF80000401E5C
:1011D00080B2FFF763FBBDF80200401C81B2BDF88E
:1011E0000000401E80B2FFF759FB08BD00200140FF
:1011F0002DE9F047DFF88CA000264FF40069344653
:1012000049465046FFF7F9F90120FEF7F3FF1E4D5E
:101210004FF4005739462846FFF7EFF90120FEF753
:10122000E9FF39462846FFF7EAF90120FEF7E2FF19
:101230004FF480486004040C39462846FFF7DDF976
:101240000120FEF7D7FF41462846FFF7CFF910B13E
:1012500044F0010401E024F0010439462846FFF778
:10126000CEF90120FEF7C6FF761C0C2EE2DB3946D4
:101270002846FFF7C2F949465046FFF7C0F9204615
:10128000BDE8F08700200140000C01402DE9F04747
:10129000DFF8689005464FF4006800244146484650
:1012A000FFF7ABF9164F4FF4005631463846FFF7BB
:1012B000A4F94FF4004A28065146384602D5FFF7F4
:1012C0009EF901E0FFF799F90120FEF787FF31460B
:1012D0003846FFF794F90120FEF780FF3146384683
:1012E000FFF78BF96806050E641C082CE3DB41460A
:1012F0004846BDE8F047FFF782B9000000200140F2
:10130000000C01400029818902D041F4005101E024
:1013100021F40051818170470246002012880A4260
:1013200000D00120704710B5C1F3421301F01F0433
:101330000121A140012B07D0022B07D01430002A35
:10134000026805D00A4304E00C30F8E71030F6E7F5
:101350008A43026010BD000030B50446008A85B0A3
:101360000D464CF6FF710840E98801432182A189AE
:101370004EF6F3100140A8882A8910436A890A436F
:101380001043A081A08A4FF6FF410840A98901437C
:10139000A1826846FFF734FD1B48844201D10398BF
:1013A00000E00298A1890904002900EBC00101EBCB
:1013B0000010296802DA4FEA410101E04FEA810199
:1013C000B0FBF1F06422B0FBF2F14FEA01114FEAF9
:1013D00011136FF018056B4300EB8300A3891D0404
:1013E0004FF0320306D503EBC000B0FBF2F000F083
:1013F000070005E003EB0010B0FBF2F000F00F0077
:101400000843208105B030BD0038014070B5044666
:101410000D4680212046FFF77FFF0028F9D029469E
:101420002046BDE87040AFF30080C1F30801818021
:10143000704770B505460C4603E0641C2846FFF76C
:10144000E5FF21780029F8D170BDFEE702E008C869
:10145000121F08C1002AFAD170477047002001E02E
:1014600001C1121F002AFBD1704700001CB50024E7
:10147000A0464FF028094FF03C0A25462646012792
:10148000FFF76AFCFFF768F9FFF7F0FDFFF7BCFB19
:10149000FEF77CFEFFF7E6FBFEF750FFFFF754FA7E
:1014A000374900200870FFF7A1F94FF01F0B1422F5
:1014B0004FF48C711046FEF7A7FE0B2D00D10025CE
:1014C0004FF47841CDE9001B05EBD57042100123A4
:1014D0001E21D220FFF744FB29481FFA8AF3001D82
:1014E00009F0FF0250F825001FFA88F180B2009041
:1014F000E0B2FFF705FAC7B1E62C14DAB9F1E60F4E
:1015000011DA4C450FDA4FF4A57188450BDA8A459C
:1015100009DAD04507DA641C09F1020908F101086B
:101520000AF1020017E0002718E0B8F10A0F14DDF5
:10153000BAF10A0F11DDD0450FDA0A2C0DDDB9F131
:101540000A0F0ADD4C4508DA641EA9F10209A8F168
:101550000108AAF10200824600E001274FF47A70E8
:10156000FEF73CFE0020FFF741F9761C0A2E01D160
:1015700000266D1C03A10548FFF75BFF97E70000FD
:10158000000000204F4B210D0A00000000380140F0
:101590000246012000E050430B00A1F10101C9B255
:1015A000F9D17047000000000000000000000000BA
:1015B00000000404040404040004000000140A0AE7
:1015C0000000000000000000000014143F140A3F57
:1015D0000A0A000000041E1505060C14150F04006D
:1015E000000012150D0A142C2A1200000000040A33
:1015F0000A1E151509360000000202010000000055
:10160000000000000020100808080808081020004A
:10161000000204080808080808040200000000048A
:10162000150E0E150400000000000404041F04043D
:1016300004000000000000000000000000020201A1
:1016400000000000001F000000000000000000007B
:101650000000000000020000001008080804040256
:101660000202010000000E1111111111110E0000F3
:101670000000040604040404040E000000000E111F
:1016800011080402011F000000000E11100C1010C0
:10169000110E00000000080C0A0A091E08180000BC
:1016A00000001F01010F1010110E000000000E09B4
:1016B000010F1111110E000000001F09080404049D
:1016C0000404000000000E11110E1111110E000093
:1016D00000000E1111111E10120E0000000000007B
:1016E00004000000000400000000000000040000EE
:1016F0000004040000201008040204081020000068
:10170000000000001F00001F00000000000204088D
:10171000102010080402000000000E11110804043B
:101720000004000000000E111915151D011E000017
:10173000000004040C0A0A1E1233000000000F12FD
:10174000120E1212120F000000001E110101010101
:10175000110E000000000F1212121212120F0000E0
:1017600000001F120A0E0A02121F000000001F12C2
:101770000A0E0A020207000000001C1201013911C2
:10178000120C000000003312121E1212123300005D
:1017900000001F0404040404041F000000003E08AD
:1017A0000808080808090700000037120A060A0A94
:1017B000123700000000070202020202223F00006E
:1017C00000001B1B1B1B15151515000000003B120C
:1017D00016161A1A1217000000000E11111111111D
:1017E000110E000000000F12120E0202020700008C
:1017F00000000E1111111117190E180000000F1220
:10180000120E0A121237000000001E110106081005
:10181000110F000000001F1504040404040E000052
:101820000000331212121212120C000000003312C8
:10183000120A0A0C0404000000001515150E0A0A0D
:101840000A0A000000001B0A0A04040A0A1B00001E
:1018500000001B0A0A040404040E000000001F0913
:1018600008040402121F0000001C04040404040401
:1018700004041C000002020204040808081000000E
:10188000000E08080808080808080E0000040A00EE
:101890000000000000000000000000000000000048
:1018A0000000003F000400000000000000000000F5
:1018B00000000000000C121C123C0000000003029B
:1018C000020E1212120E000000000000001C120294
:1018D000021C000000001810101C1212123C000024
:1018E00000000000000C121E021C00000000380462
:1018F000041E0404041E000000000000003C120C42
:10190000021E221C00000302020E121212370000F7
:101910000000040000060404040E0000000008009B
:10192000000C08080808080700000302023A0A0E23
:10193000123700000000070404040404041F000020
:1019400000000000000F1515151500000000000034
:10195000000F12121237000000000000000C1212DB
:10196000120C000000000000000F1212120E0207FD
:1019700000000000001C1212121C103800000000B1
:10198000001B06020207000000000000001E020CFF
:10199000101E000000000004040E040404180000DF
:1019A00000000000001B1212123C000000000000AA
:1019B0000037120A0C040000000000000015150E8C
:1019C0000A0A000000000000001B0A040A1B0000B5
:1019D000000000000037120A0C040403000000009D
:1019E000001E0804041E0000001808080804080867
:1019F000080818000808080808080808080808085F
:101A00000006040404080404040406000225180067
:101A100000000000000000000000000000000000C6
:101A2000000000000000000000000008080808088E
:101A3000080800001818000000486C24120000007C
:101A400000000000000000000000002424247F1299
:101A500012127F12121200000000081C2A2A0A0C1F
:101A60001828282A2A1C0808000000222515151508
:101A70002A585454542200000000000C1212120A7A
:101A800076252911916E000000060604030000006F
:101A900000000000000000000040201010080808AE
:101AA0000808081010204000000204080810101058
:101AB00010101008080402000000000008086B1C49
:101AC0001C6B08080000000000000000080808085F
:101AD0007F08080808000000000000000000000067
:101AE00000000000060604030000000000000000E3
:101AF000FE000000000000000000000000000000E8
:101B00000000000006060000000080404020201079
:101B10001008080404020200000000182442424297
:101B20004242424224180000000000080E08080843
:101B300008080808083E00000000003C424242201D
:101B400020100804427E00000000003C42422018A1
:101B500020404042221C00000000002030282424A5
:101B600022227E20207800000000007E0202021A5D
:101B700026404042221C0000000000382402021AC5
:101B800026424242241800000000007E222210104B
:101B900008080808080800000000003C42424224EF
:101BA00018244242423C00000000001824424242F5
:101BB00064584040241C0000000000000000181879
:101BC00000000000181800000000000000000008DD
:101BD0000000000000080804000000402010080475
:101BE00002040810204000000000000000007F00F8
:101BF00000007F0000000000000000020408102028
:101C000040201008040200000000003C4242464010
:101C100020101000181800000000001C225A555512
:101C200055552D42221C000000000008081814140D
:101C3000243C224242E700000000001F2222221E14
:101C400022424242221F00000000007C4242010169
:101C500001010142221C00000000001F22424242FA
:101C600042424242221F00000000003F4212121E68
:101C700012120242423F00000000003F4212121EB8
:101C800012120202020700000000003C22220101A1
:101C900001712122221C0000000000E74242424262
:101CA0007E42424242E700000000003E0808080869
:101CB00008080808083E00000000007C1010101002
:101CC000101010101010110F0000007722120A0ED1
:101CD0000A1212222277000000000007020202020C
:101CE00002020202427F00000000007736363636DC
:101CF0002A2A2A2A2A6B0000000000E346464A4AA4
:101D000052525262624700000000001C22414141D1
:101D100041414141221C00000000003F424242423A
:101D20003E020202020700000000001C2241414165
:101D300041414D53321C60000000003F4242423E90
:101D40001212222242C700000000007C424202041C
:101D500018204042423E00000000007F4908080869
:101D600008080808081C0000000000E74242424240
:101D700042424242423C0000000000E7424222242C
:101D800024141418080800000000006B4949494950
:101D90005555362222220000000000E74224241874
:101DA0001818242442E700000000007722221414AF
:101DB00008080808081C00000000007E2120101000
:101DC00008040442423F0000007808080808080898
:101DD000080808080808780000000202040408083F
:101DE0000810102020204040001E1010101010106D
:101DF0001010101010101E000038440000000000E9
:101E000000000000000000000000000000000000D2
:101E100000000000000000FF0006080000000000B5
:101E20000000000000000000000000000000003C76
:101E30004278444242FC0000000000030202021A01
:101E400026424242261A000000000000000000382E
:101E50004402020244380000000000604040407824
:101E60004442424264D80000000000000000003CF0
:101E7000427E0202423C0000000000F08808087E1A
:101E800008080808083E0000000000000000007C70
:101E900022221C023C42423C000000030202023AA1
:101EA0004642424242E700000000000C0C00000ED7
:101EB00008080808083E0000000000303000003824
:101EC000202020202020221E000000030202027297
:101ED000120A1612227700000000000E08080808F7
:101EE00008080808083E0000000000000000007F0D
:101EF0009292929292B70000000000000000003B16
:101F00004642424242E70000000000000000003C60
:101F100042424242423C0000000000000000001B20
:101F200026424242221E0207000000000000007804
:101F300044424242447840E0000000000000007744
:101F40004C040404041F0000000000000000007C9A
:101F500042023C40423E0000000000000008083EF3
:101F600008080808083000000000000000000063B6
:101F70004242424262DC000000000000000000E734
:101F8000422424140808000000000000000000EBB8
:101F9000494955552222000000000000000000764B
:101FA00024181818246E000000000000000000E74C
:101FB0004224241418080807000000000000007ED6
:101FC00022100808447E000000C02020202020109D
:101FD000202020202020C000101010101010101001
:101FE0001010101010101010000608080808081033
:101FF00008080808080806000C32C20000000000AB
:102000000000000000000000A1F600007FFC7FFC43
:102010007FFC7FFC7FFC7FFC7FFC7FFC7FFC7FFCE8
:102020007FFC7FFC7FFC00000000D2BA40402020F3
:1020300027FE09208920527C524416A82B98225052
:10204000E220223022502288230E2204BEA7000064
:102050000FF008100FF008100FF0081000007E7E3F
:1020600042427E7E424242427E7E42420000C7FDA4
:102070000000F9FE090049044984494849287D10B7
:10208000051805283524C5440584290011FE0000E3
:10209000B6AF002000207E20002000FCFF2410248A
:1020A0001024242422244F44FA44408401140208BA
:1020B0000000CAB5010000803FFE28044688048065
:1020C0000880068004807FFE00800140022004100A
:1020D00018186010D1E90000F840084048A0489066
:1020E000490E4BF07C00048406443548C548041072
:1020F00017FE08000000A1AA000000000000000078
:10210000000000000000FFFE0000000000000000D2
:102110000000000000000000BBF9082008207FFC40
:1021200008200FE008200FE00820FFFE082011180B
:102130003FEEC10401007FFC0000D3DA00003FFC49
:102140000100010001000100FFFE0100010001008B
:10215000010001000100090005000200C8C3404061
:102160002040304020400040007CE04020402040A3
:102170002040204020402840304027FE0000D3C5AA
:10218000108018A01098209037FC6140A140214099
:10219000214021402140224422442446283C200062
:1021A000D0E300F83F0001007FFE03C00D30310E88
:1021B000C1041FF00220024004FC0404080410289B
:1021C0002010B3C900A0009000803FFE2080208036
:1021D0003E88228C2248225022202A604492410AC2
:1021E00086060002CEAA008010800C8004847FFE48
:1021F000010401040184014402240224040408446B
:10220000102820100000CFB000003FFC000408049C
:102210000404030401140064018406043804100457
:102220000004002400140008B9DF200023F822482D
:102230002FFE3248AA48ABF8A00023F822482248D3
:102240002248224820B023082C04A3AC0000000040
:10225000000000000000000000000000000000007E
:10226000000030003000100020000000D7A801005E
:1022700001003FF802000200FFFE040008200FF0FA
:102280000020004002800100008000400000D7A232
:1022900020801040104007FE8040484048401040D9
:1022A00013FC2040E0402040204020402FFE200032
:1022B000C1A601000100010001007FFC010401042E
:1022C00001040104020402040404040408041028A4
:1022D0002010C1BF1FF010101FF010101FF00000E1
:1022E000FFFE11101FF011101FF001001FF8010078
:1022F000FFFE0000B3C900A0009000803FFE2080D8
:1023000020803E88228C2248225022202A6044923B
:10231000410A86060002BECD10200828FF240024B2
:1023200000207FFE425042507E5008502C502A9090
:102330004A9289122A0E1000C3CE082008207EFE81
:1023400008301C682AAECB240C2007F808100C209B
:102350003240018003000C007000CFEB100010FC35
:102360001084FEFC388434FC5484508490FC0000BB
:10237000010008842882281267F00000A3A1000051
:1023800000000000000010001000100010001000FD
:102390001000100010001000000010000000CDFA26
:1023A000000003FC7C404440444044407C4045FCE9
:1023B0004440444044407C400040004007FE000050
:1023C000B1A6020001007FFE400480083FF8010032
:1023D000010001001FF801400120013001207FFEB3
:1023E0000000B5E70100010001003FF821082108C5
:1023F0003FF82108210821083FF8210801020102C5
:1024000000FE0000D7D300003FF000200040008015
:10241000010001000104FFFE0100010001000100B4
:10242000010005000200BAEC10001000200425FE97
:102430004420F820082010202020FC2040200020EC
:102440001C20E02447FE0000C1FA020002400220E6
:1024500002207FFE02800290029004A004C0088047
:10246000098012822082407E0000BFAA00007FFE09
:102470000420042004200420FFFE04200420042063
:10248000082008201020202040200000B7A20200D1
:102490002240223022107FFE2400040007E00C209E
:1024A0000A200A20114020804160861C1808B0E5EF
:1024B000101C11E011001100FD0011FC3984354899
:1024C00055485230921012301448108E11040000FA
:1024D000CDE2082008200F201120112021305228A1
:1024E0008A240C2204220820102020204020802052
:1024F0000020CFDF10401850104C204823FC4840EB
:10250000F84013FE20407C48003000221CD2E30A31
:1025100000060002B2E2400227C224428452455221
:1025200055521552255225522552C552410242821A
:102530004242444A4804CAD400204028202430247F
:1025400027FE0020E02027E0212021102110210A71
:1025500029CA360620020000C4AE2120112017FE31
:10256000812043F8520813F8120823F82040E7FEB0
:10257000204020A02090210E2604C8BB084008500F
:102580001F48114833FE2A40646094A00890110E41
:10259000260440002888244466664222BC250008A0
:1025A00000000020500000004C1400080C26000819
:1025B00050000020000400005C140008000000002F
:1025C000FFFF00001F00000000F800001FF80000DF
:1025D000E0070000FF7F0000E0FF000040BC0000BB
:1025E00007FC00003084000018C600000000000056
:1025F00000000000000002040608000000000102C4
:0C2600000304010203040607080900009F
:0400000508000131BD
:00000001FF
