:020000040800F2
:1000000000040020450100085B040008FF0300080D
:1000100059040008DD0100081D060008000000006A
:100020000000000000000000000000003105000892
:10003000DF0100080000000015050008C9050008E0
:100040005F0100085F0100085F0100085F01000810
:100050005F0100085F0100085F0100085F01000800
:100060005F010008E10100085F0100085F0100086E
:100070005F0100085F0100085F0100085F010008E0
:100080005F0100085F0100085F0100085F010008D0
:100090005F0100085F0100085F0100081502000809
:1000A0005F0100085F0100085F0100085F010008B0
:1000B0005F0100085F0100085F0100085F010008A0
:1000C0005F0100085F0100085F0100085F01000890
:1000D0005F0100085F0100085F0100085F01000880
:1000E0005F0100085F0100085F0100085F01000870
:1000F0005F0100085F0100085F0100085F01000860
:100100005F0100085F0100085F0100085F0100084F
:100110005F0100085F0100085F0100085F0100083F
:100120005F0100085F0100085F0100085F0100082F
:10013000DFF80CD000F018F8004800473D06000832
:10014000000400200648804706480047FEE7FEE717
:10015000FEE7FEE7FEE7FEE7FEE7FEE7FEE7FEE777
:10016000CD05000831010008064C074D06E0E068A7
:1001700040F0010394E8070098471034AC42F6D3EE
:10018000FFF7DAFF540600086406000838B50121BD
:10019000042000F0C1F948248DF8034003258DF8B0
:1001A00002504FF48070ADF800006946094800F035
:1001B000CFF80121212000F0AFF98DF803408DF830
:1001C00002500820ADF800006946034800F0C0F86E
:1001D00038BD00000008014000140140FEE77047F0
:1001E00010B5082000F058F800280FD0082000F0C3
:1001F0002DF8074C01224021204600F0FBF8204654
:100200000122BDE81040802100F0F4B810BD0000CC
:10021000001C014010B54FF48074204600F03CF8FB
:1002200000280FD0204600F011F8074C0022402192
:10023000204600F0DFF820460022BDE81040802173
:1002400000F0D8B810BD0000001C01400149086052
:1002500070470000140401407CB500244FF4807006
:100260008DF804400C2500908DF8055001268DF87E
:100270000660684600F020F80321084600F054F8B4
:1002800008208DF8044000908DF805508DF8066028
:10029000684600F011F87CBD064A0146002012684D
:1002A000044B0A4014331B680B4202D0002A00D0D2
:1002B000012070470004014030B51A498379026873
:1002C00053B30B6893430B600A1D13680468A34380
:1002D000136002790A441368046823431360114AC7
:1002E000083213680468A3431360131D1C68056873
:1002F000AC431C604479102C05D021440A68006886
:1003000002430A6030BD1168046821431160196816
:1003100000680143196030BD0079084401689143C9
:10032000016030BD0004014010B58A0721F00304CC
:100330000649130F21440F228C689A4094438C6025
:100340008A68984002438A6010BD000000000140A6
:100350002DE9F041CB78002503F00F02DB0601D533
:100360008B781A430B884FF00F0813F0FF0F4FF0F4
:10037000010C1CD0D0F800400E880CFA05F31E408A
:100380009E4210D1AF0008FA07F624EA060602FAE8
:1003900007F43443CE78282E02D0482E02D002E053
:1003A000436100E003616D1C082DE5D304600B88F8
:1003B000FF2B1DD94468002505F108060CFA06F349
:1003C0000E881E409E420FD1AF0008FA07F624EABD
:1003D000060602FA07F43443CE78282E00D1436192
:1003E000CE78482E00D103616D1C082DE4D3446003
:1003F000BDE8F0810AB10161704741617047FEE7D5
:1004000038B50121802000F087F84FF47070ADF806
:10041000000003208DF8020010200E4C8DF8030020
:1004200069462046FFF794FF012240212046FFF74E
:10043000E1FF012280212046FFF7DCFF01221102AB
:100440002046FFF7D7FF012251022046FFF7D2FFD7
:1004500038BD0000001C0140FEE7704738B54FF47E
:10046000A06000F04DF817208DF8000000248DF8F2
:1004700001408DF8024001258DF80350684600F0D8
:100480000DF809208DF800008DF801408DF802501C
:100490008DF80350684600F001F838BD70B50F21A3
:1004A000C478027801234FF0E026DCB1124C2468B6
:1004B00004F4E064C4F5E064250AC5F10404E940ED
:1004C0004578A54084780C402C4321010B4C1155F4
:1004D000007800F01F018B40400906EB8000C0F857
:1004E000003170BD02F01F008340500906EB800010
:1004F000C0F8803170BD00000CED00E000E400E0C9
:100500000249084302490860704700000000FA05EC
:100510000CED00E070470000044A0029916901D009
:10052000014300E0814391617047000000100240E8
:100530007047000022480021026842F480320260C5
:100540004FF4A063026801F1010112F4003F01D1F0
:100550009942F7D10168890330D51A490A6842F0F7
:1005600010020A600A6822F003020A600A6842F078
:1005700002020A604168416041684160416841F49B
:1005800080614160416821F47C114160416841F41F
:10059000E8114160016841F08071016001688901E2
:1005A000FCD5416821F003014160416841F002013E
:1005B00041604168C1F381010229FAD1704700000E
:1005C0000010024000200240704700000F4810B5A4
:1005D000016841F00101016041680D4A114041602C
:1005E00001680C4A11400160016821F4802101601A
:1005F000416821F4FE0141604FF41F018160FFF763
:1006000099FF05494FF00060086010BD00100240DE
:100610000000FFF8FFFFF6FE08ED00E0FEE702E055
:1006200008C8121F08C1002AFAD17047704700207D
:1006300001E001C1121F002AFBD17047FFF7C6FF7E
:10064000FFF7DEFEFFF7A2FDFFF708FFFFF704FE4E
:10065000FEE700006406000800000020000400001F
:040660002E0600085A
:0400000508000131BD
:00000001FF
